:02000004080AE8
:1000000000000A08C4760A08000006000600050180
:0800100004021F0C00000000B7
:04001800BC6D0A08A9
:1000200009480A4908B5884205D0094A824202D0E7
:10003000121A06F0B7FD0748074A0021121A06F007
:10004000BFFD064808BD00BF0000002014760A0866
:1000500088000020880000202406002024060020BC
:1000600070B503F0BFFB0025054E064CA41BA40889
:10007000A54200D170BD56F8043B98470135F7E71B
:10008000E8750A0808760A0800F09EBE08B501F077
:100090008FF8BDE8084003F05DBB03F009B803F03A
:1000A00007B803F00DB80078B0FA80F04009704747
:1000B000012303707047000008B5006806F05CFD7E
:1000C0004FF47A735843014B186008BD0C000020B0
:1000D00008B5006806F050FD4FF47A735843014BA1
:1000E000186008BD1000002008B503F05FF800207C
:1000F00008BD000000000000F8B502F0F7FD164C46
:10010000164D206023682A689B1A154A13601368ED
:100110000A2B1BD90EA3D3E90023124ED6E9000106
:1001200005F012FD104BC6E900011F780F4E56F87E
:10013000270005F067FE06A3D3E9002305F004FDC0
:1001400006F0B0F946F8270023682B60F8BD00BF21
:10015000BA490C022B87863F280200202402002087
:1001600020020020C0000020F00000202801002014
:1001700010B502F0BBFD074C2368C01A0A2807D946
:1001800002F0B4FD044A206013780133DBB213702F
:1001900010BD00BFEC0000207002002070B50C1EE6
:1001A000064615460BDA0A2A09D12D2103F054F927
:1001B00061423046EAB2BDE8704003F066B92146BC
:1001C000F7E708B5002002F063FF28B102F048FF0E
:1001D00080F00100C0B208BD0120FCE70023092225
:1001E00002F026BF0023022202F022BF08B501213F
:1001F000052004F084F9C82003F044FA0B2004F031
:10020000AAF9054B1860642003F03CFABDE80840E9
:100210000021052004F073B94C02002010B50C46F3
:100220000146044801F0FEFD05F0ECFDC4E90001C3
:1002300010BD00BF3002002038B5114C114801F04C
:10024000A0FD21461048FFF7E9FF30CC00222046F0
:1002500029460E4B06F0A0F880B900220C4B204630
:10026000294605F027FE00220A4B05F04DFF0A4BF8
:10027000002205F069FC094BC3E9000138BD00BF4D
:10028000900000203002002014000020000059C01F
:1002900000002240000014400000404050020020B6
:1002A00038B5C94B188804F056F905F089FDA0A3AC
:1002B000D3E9002305F0FEFD9FA3D3E9002305F059
:1002C00023FF9FA3D3E9002304460D4606F078F8E8
:1002D00048B19DA3D3E900232046294606F05CF8E7
:1002E000002840F014819AA3D3E900232046294630
:1002F00006F066F848B198A3D3E9002320462946C2
:1003000006F04AF8002840F0048193A3D3E90023C3
:100310002046294606F054F848B191A3D3E90023BA
:100320002046294606F038F8002840F0F4808EA3D5
:10033000D3E900232046294606F042F848B18CA3B1
:10034000D3E900232046294606F026F8002840F08D
:10035000E58087A3D3E900232046294606F030F83C
:1003600048B185A3D3E900232046294606F014F8B6
:10037000002840F0D68082A3D3E9002320462946F6
:1003800006F01EF848B178A3D3E900232046294699
:1003900006F002F8002840F0C7807BA3D3E90023D1
:1003A0002046294606F00CF848B179A3D3E900238A
:1003B0002046294605F0F0FF002840F007816EA393
:1003C000D3E900232046294605F0FAFF48B16EA381
:1003D000D3E900232046294605F0DEFF002840F03F
:1003E000F8806DA3D3E900232046294605F0E8FFF5
:1003F00048B157A3D3E900232046294605F0CCFF96
:10040000002840F0E98062A3D3E900232046294672
:1004100005F0D6FF48B160A3D3E900232046294662
:1004200005F0BAFF002840F0DA805DA3D3E900238D
:100430002046294605F0C4FF48B15BA3D3E9002359
:100440002046294605F0A8FF002840F0CB8044A3B1
:10045000D3E900232046294605F0B2FF48B150A356
:10046000D3E900232046294605F096FF002840F0F6
:10047000BC804FA3D3E900232046294605F0A0FF06
:1004800048B14DA3D3E900232046294605F084FF57
:10049000002840F0AD802CA3D3E900232046294654
:1004A00005F08EFF48B146A3D3E900232046294634
:1004B00005F072FF002840F09E8041A3D3E900239D
:1004C0002046294605F07CFF48B139A3D3E9002333
:1004D0002046294605F060FF002840F08F8032A3B7
:1004E000D3E900232046294605F06AFF002800F0E2
:1004F000888013A3D3E900232046294605F04CFF4A
:10050000002840F62F5008BF4FF0FF3038BD0020C4
:10051000FCE7E120FAE74FF4E170F7E740F2A320AF
:10052000F4E74FF46170F1E740F26540EEE700BF99
:100530006666666666660A400000000000FEAF4020
:10054000B81E85EB51B806409A9999999999074038
:10055000D7A3703D0AD7FF3F9A999999999901407D
:100560005C8FC2F5285C0340D7A3703D0AD7F33FE8
:1005700052B81E85EB51F43F9A9999999999F53F94
:10058000E17A14AE47E1F23FAE47E17A14AEF73FAD
:10059000666666666666FA3FA4703D0AD7A3FC3FAE
:1005A000CDCCCCCCCCCC04409A9999999999054062
:1005B0001F85EB51B81E0940AE47E17A14AE0940E1
:1005C00052B81E85EB5108400400002040F246500E
:1005D0009CE740F2276099E74FF4E16096E740F22C
:1005E000E97093E740F6CA0090E740F6AB108DE75C
:1005F00040F68C208AE740F66D3087E740F64E40A3
:1006000084E74FF0FF3081E7F8B502F06FFB144E3E
:10061000144F3368C01A06F04BF80546387806F0D8
:1006200047F811490446284606F04EF9014620468F
:1006300006F04AF9002304463B7002F057FB306095
:10064000204605F0DFFB04A3D3E9002305F032FCCC
:1006500005F028FFF8BD00BFAC1C5A643BDFF73F34
:10066000E80000207002002000007A440000000032
:100670002DE9F74F8C4801F0CBFE05F0C3FB8B4B07
:100680008B4DC3E90001884801F002FF05F0BAFB79
:100690000022884B05F056FA874BC3E900018248D7
:1006A00001F0D2FE05F0AEFB7DA3D3E9002305F0F7
:1006B00049FA824BC3E900017B4802F083F805F058
:1006C000A1FB00227B4B05F03DFA7D4BC3E9000105
:1006D000754801F0BDFF05F095FB7A4BC3E90001B9
:1006E000FFF7AAFDFFF782FD2B780133DBB2772BF2
:1006F00088BF00232B70FFF787FF8246FFF7D0FDEE
:10070000431C044602D1FFF7CBFD04466E4B504616
:100710001C6005F077FB0F4606466C4B5046C3E95C
:10072000006706F0E3F92D78694BDFF8A88158558A
:10073000694BDFF8A89143F8254098F800505146DE
:1007400059F8250006F0AAF920B1654B49F825A013
:1007500043F82540DFF88CA13046DAE9002339461A
:1007600005F038FE18B1604BCAE900671C605F4AAB
:10077000002113780133DBB23B2B72D813700025B4
:100780000024534E16F8010B05F096FF0146204653
:1007900005F0DEFE0135782D0446F3D1544906F00C
:1007A00093F805F02FFB00250024524B4A4EC3E975
:1007B000000156F8040B05F07FFF0146204605F0C6
:1007C000C7FE0135782D0446F3D10024484906F0D0
:1007D0007BF806F08BF900260027A1462546464BFC
:1007E000DFF818811860C8E90067454BDFF8ECA016
:1007F000DFF8ECB01C605AF8040B05F003FB02466E
:100800000B46CDE9002332463B4605F0E3FD28B117
:10081000DDE900674FF001095BF8254001350A2D3D
:10082000E9D1B9F1000F03D0354BC8E900671C606E
:10083000002400250026334F57F8260005F0E2FA81
:1008400002460B462046294605F07EF901363C2E2D
:1008500004460D46F0D12C4BC3E9004503B0BDE87A
:10086000F08F00201070294A01351378EDB2013362
:10087000DBB23B2B94BF13701070092D88BF00238F
:10088000127888BF88F800301E4B98BF88F8005057
:1008900043F8221098F8003049F823106FE700BFA2
:1008A00062A1D634EF3806402E020020D00000208E
:1008B0002D02002000001440680200206002002089
:1008C000B000002020010020740200204805002014
:1008D000C8040020F10000207C0200205C040020FD
:1008E0008C040020B8040020840400202C02002086
:1008F0000000F0424005002078020020C0040020E3
:10090000880400202801002018020020F0000020A8
:1009100070B590B002F0EAF9124E4EF66021B0FBCD
:10092000F6F206FB1205B5FBF1F304464FF47A70BC
:1009300001FB1351B1FBF0F103A800910A4902F049
:10094000CFFB03F0E1FB03A902F082FDB44207D222
:10095000064B9D4204D803F0D7FB054902F078FD11
:1009600010B070BD80EE3600D06D0A087F4F1200C7
:10097000E86D0A0837B503F0C7FBBB4902F068FD14
:10098000BA4B1B68B3F5E16F00F05A812CDCB3F56C
:10099000617F00F0498115DCB3F5E17F00F0408113
:1009A00008DC002B4AD0E12B00F0368103F0ACFBD1
:1009B000AF4946E040F2A3229342F7D103F0A4FBF3
:1009C000AC493EE040F24652934200F0318140F2A1
:1009D0002762934200F0308140F265429342E5D1B4
:1009E00003F092FBA4492CE040F68C22934200F0E5
:1009F000338111DC40F6CA02934200F0258140F6B3
:100A0000AB12934200F0248140F2E9729342CDD1BF
:100A100003F07AFB994914E040F64E42934200F00D
:100A20001F8140F62F52934200F0808140F66D32D4
:100A30009342BBD103F068FB914902E003F064FBF1
:100A4000904902F005FD03F05FFB8F4902F000FDC5
:100A500003F05AFB0123022400938C4BD3E90023BB
:100A600002F0F2FD03F050FB894902F0F1FC03F0C3
:100A70004BFB884902F0ECFC03F046FB864B0094EC
:100A8000D3E9002302F0E0FD03F03EFB834902F0CE
:100A9000DFFC03F039FB824902F0DAFC03F034FB9F
:100AA000804B0094D3E9002302F0CEFD03F02CFB31
:100AB0007A4902F0CDFC03F027FB7B4902F0C8FC29
:100AC00003F022FB794B0094D3E9002302F0BCFD34
:100AD00003F01AFB764902F0BBFC03F015FB7549E5
:100AE00002F0B6FC03F010FB734B0094D3E9002333
:100AF00002F0AAFD03F008FB704902F0A9FC03F024
:100B000003FB6F4902F0A4FC03F0FEFA6D4B009466
:100B1000D3E9002302F098FD03F0F6FA644902F0ED
:100B200097FC03F0F1FA684902F092FC03F0ECFA4A
:100B300066490546D1E900010022654B05F0E4FA5B
:100B4000009402460B46284602F07EFD03F0DCFAD4
:100B5000604902F07DFC03F0D7FA5F4902F078FCAF
:100B600003F0D2FA5D4B0094D3E9002302F06CFD50
:100B700003F0CAFA4E4902F06BFC03F0C5FA58497B
:100B800002F066FC03F0C0FA564B0A221968FFF720
:100B900005FB03F0B9FA544902F05AFC03F0B4FA29
:100BA000524902F055FC03F0AFFA06230093504B74
:100BB000D3E9002302F048FD03F0A6FA4A4902F007
:100BC00047FC03F0A1FA4B4902F042FC03F09CFA07
:100BD000494B0A221968FFF7E1FA03F095FA4249F6
:100BE00002F036FC03F090FA444902F031FC03F0C5
:100BF0008BFA434B0A221968FFF7D0FA03F084FA04
:100C0000394902F025FCFFF783FE03F07DFA03B0BB
:100C1000BDE8304002F023BC03F076FA394910E712
:100C200003F072FA38490CE703F06EFA374908E727
:100C300003F06AFA364904E703F066FA354900E73B
:100C400003F062FA3449FCE603F05EFA3349F8E651
:100C500003F05AFA3249F4E603F056FA3149F0E665
:100C600003F052FA3049ECE6FF6D0A0874020020E6
:100C70003F6E0A08136E0A081C6E0A082A6E0A08DC
:100C8000376E0A08096E0A08476E0A0848050020F0
:100C9000546E0A08666E0A08180200205A6E0A0886
:100CA000606E0A08C00000209F6E0A0868020020DB
:100CB0006C6E0A08706E0A08D00000207A6E0A086E
:100CC0007F6E0A08B00000208A6E0A08200100200A
:100CD00000005940946E0A089A6E0A0850020020DB
:100CE000A56E0A084C0200207D6E0A08B46E0A0840
:100CF00098000020C36E0A08A4000020C86E0A08ED
:100D0000A80000200F6E0A08146E0A08176E0A0861
:100D10001D6E0A08206E0A08246E0A082B6E0A0847
:100D20002E6E0A08326E0A083C6E0A0803F0ECF9CF
:100D3000004986E63B6E0A0808B504281BD8DFE8A0
:100D400000F0030A0E12160003F0DEF90C49BDE8AC
:100D5000084002F07DBB03F0D7F90A49F7E703F03A
:100D6000D3F90949F3E703F0CFF90849EFE703F0B6
:100D7000CBF90749EBE703F0C7F90649E7E700BFFE
:100D8000CE6E0A08D66E0A08DF6E0A08E96E0A08F7
:100D9000F86E0A08066F0A0810B5094801F09AF9BA
:100DA000044658B103F0B0F9064902F051FB204661
:100DB000FFF7C2FF03F0A8F902F051FB204610BD77
:100DC000F4000020196F0A0873B503F09DF94FF481
:100DD000165103F095F96C4800F06EFF0B226B4939
:100DE000694800F024FF03F021FC03F021FA3921C7
:100DF000674801F0D1FE674D0021654801F0D3FE40
:100E0000654E0021624801F0E1FE0221288803F0CE
:100E100065FB0221308803F061FB0121052003F00E
:100E20005DFB0021052003F06AFB5C4801F052F9EC
:100E3000044658B103F068F9594902F009FB20460D
:100E4000FFF77AFF03F060F902F009FB0024554830
:100E500001F058FB534801F0BEFB0721514801F057
:100E6000C7FB504801F0D8FB4F4B1C7001F03EFF10
:100E70004E4B022218604E494FF0FF3330880094E9
:100E800003F0BAF84FF0FF3302224A492888009451
:100E900003F0B2F803F0DCF8474A4849484802F04A
:100EA0002EFD484A4849464802F029FD474A48492C
:100EB000434802F024FD474A4749414802F01FFDDC
:100EC000464A47493E4802F01AFD464A46493C48D0
:100ED00002F015FD454A4649394802F010FD454AE1
:100EE0004549374802F00BFD44494548FFF77AF978
:100EF00044494548FFF772F944494548FFF76EF900
:100F000044494548FFF76EF944494548FFF766F9FB
:100F100044494548FFF766F944494548FFF75EF9FB
:100F200044494548FFF75EF944494548FFF756F9FB
:100F300044494548FFF752F944494548FFF74EF9FF
:100F400044494548FFF74AF944494548FFF746F9FF
:100F500044494548FFF742F944494548FFF73EF9FF
:100F600044494548FFF73EF944494548FFF736F9FB
:100F700044494548FFF736F94449454802B0BDE8C1
:100F80007040FFF72FB900BF30020020140000208E
:100F9000AC0000200800002000000020F400002029
:100FA000196F0A082E0200202C020020E000002009
:100FB000F9000A0871010A08366F0A08B9000A0820
:100FC000D3380A08436F0A08D1000A08506F0A088C
:100FD000E9000A085C6F0A084D150A08686F0A08DC
:100FE000D5150A08756F0A089D160A08806F0A0849
:100FF00025170A088C6F0A08990D0A087402002048
:101000009B6F0A0848050020A36F0A08B804002057
:10101000B06F0A0884040020BC6F0A084005002055
:10102000C86F0A0878020020D46F0A08C0040020A4
:10103000E06F0A0888040020ED6F0A0818020020FB
:10104000FF6F0A08C8000020FA6F0A08D0000020CD
:1010500006700A086802002013700A085002002077
:101060000F700A082001002019700A08B000002043
:1010700021700A084C0200202A700A0898000020FB
:1010800037700A08A800002042700A08A400002057
:101090004A700A0810B5214800F0F2FFFF28044604
:1010A00006D103F031F8BDE810401D4902F0E3B964
:1010B00003F02AF81B4902F0CBF9A20604D503F08D
:1010C00023F8194902F0C4F9E30604D503F01CF82B
:1010D000164902F0BDF9200704D503F015F81449AC
:1010E00002F0B6F9610704D503F00EF8114902F0D9
:1010F000AFF9A20704D503F007F80F4902F0A8F9E9
:10110000E30704D503F000F80C4902F0A1F902F05E
:10111000FBFFBDE8104002F0A2B900BFF4000020C0
:1011200051700A0872700A087A700A0887700A08F3
:1011300093700A08A1700A08B1700A08C0700A0802
:1011400038B5046805467CB16368013B63605BB9F0
:10115000236820469B689847A368013BA3601BB99E
:1011600023682046DB689847284638BD38B50468B0
:10117000002001F0CFFE20B1637813B901F068FFC1
:10118000FAE76378651CBFF35B8F0BB9002038BDAD
:10119000002001F0BFFE20B12B7813B901F058FFF9
:1011A000FAE72378012BF1D1207BF0E70000000063
:1011B0002DE9F04F984BA1B0D3E90001974BC3E95B
:1011C000000101F093FD964A1368C01AB0F57A7FCA
:1011D000C0F0088103F57A731360FFF749FA91486C
:1011E00001F076FB04F00EFE8F4BC3E900018F483F
:1011F00000F026FF002800F06B818C4800F000FF13
:101200008A4801F09BF88A4B1860884801F098F8EA
:10121000884B1860854801F017F8844801F092F86F
:10122000854B0446D3E9000105F03CF9224601460E
:101230007E4800F091FF814C23680133052B236029
:1012400003D1FFF797FB0023236001F04FFD7C4C97
:101250002368C01A7B4B1B6898426ED901F046FD8B
:10126000754B7949D3E90067784B20600022D3E9B8
:1012700000ABD1E90001764B04F046FF02460B4675
:10128000CDE9122360A3D3E9002304F013FE714BD0
:10129000CDE9140118CBCDE916346F4BD3E90089A1
:1012A0006E4B1B681993604BD3E9004558A3D3E9F3
:1012B00000232046294605F08DF810B154A5D5E944
:1012C00000455C4B32461B6865490F93584B1CA880
:1012D0001B68CDE90C450E93199BCDE908890A934B
:1012E000CDE900ABDDE91634CDE90634DDE914348F
:1012F000CDE90434DDE91234CDE902343B4602F095
:1013000059F8584B1C9A1B7857498DF800301AA889
:101310003C2302F0EBFB1AA8FFF728FF534C207088
:101320001BA8FFF70DFF1CA801F062FF237823B96B
:1013300002F0EAFE4E4902F09EF801F0D7FC4D4C57
:101340002368C01A4C4B1B6898424BD901F0CEFC65
:10135000314B2060D3E90023CDE91023474B4849A6
:10136000D3E90023CDE90E23464B1CA81B683F4C54
:101370000C93454BD3E90023CDE90A23434B1B686B
:101380000893434BD3E90023CDE90623414B1B6867
:101390000493414BD3E90023CDE902233F4BD3E92A
:1013A0000023CDE900233E4B1A6802F003F82D4BD1
:1013B0001C9A1B783B498DF800301AA83C2302F098
:1013C00095FB1AA8FFF7D2FE20701BA8FFF7B8FE06
:1013D0001CA801F00DFF237823B902F095FE3249D5
:1013E00002F049F801F082FC304C2368C01A304BFF
:1013F00098427BD90022002300252749C1E9002318
:1014000024490D60044955E0B0E600C11C3D9E3FF3
:1014100000000000C0FFEF40C0000020C800002016
:10142000E0000020AC00002098000020F400002024
:10143000A8000020A4000020D0000020B800002058
:10144000D80000200C0000202001002068020020AD
:1014500000005940B0000020500200204C02002043
:10146000CB700A08A000002062710A085802002010
:101470006C710A08DC000020100000201802002017
:1014800085710A0888040020C0040020780200202A
:101490004005002084040020B804002048050020F6
:1014A0007402002038720A083F720A08E400002023
:1014B000005C2605C1E9002301F0D2FD10B12846E9
:1014C00001F0DEFDFEF77DFE58B901F0C1FDF9E740
:1014D000084800F0A8FD00283FF4ADAEFFF7DAFDA4
:1014E000A9E6FEF76EFE01F001FC206021B0BDE828
:1014F000F08F00BFF4000020012210B50C4B0D4C02
:101500001A700421204600F070F921460A4800F0C4
:10151000DFFA0A4801F074F9094800F019FF5B216D
:10152000084800F061FD01F0E1FB074B186010BDB9
:10153000A00000200C01002030020020AC000020A0
:101540002E020020F4000020E4000020F0B501216C
:1015500085B0064601F0FDFEA0F13005072D0446DA
:101560002CD81A49684601F08DFE6946304601F0D4
:10157000DEFE0746684601F03BFE57B1ADB2284695
:10158000032102F0ABFF284605B0BDE8F04002F0B1
:10159000CFBF0F49684601F075FE6946304601F03D
:1015A000C6FE0546684601F023FE5DB1263CA4B2A6
:1015B0002046032102F092FF2046E5E74FF0FF307E
:1015C00005B0F0BD6FF00100FAE700BF3D720A08F8
:1015D00055720A08F0B5012185B0064601F0B9FE42
:1015E000A0F13004072C47D8072303223146684670
:1015F00001F0B2FE6846254901F071FE05466846D5
:1016000001F0F6FD3DBB062303223146684601F09A
:10161000A3FE68461E4901F062FE0746684601F0D7
:10162000E7FD67B31B49684601F02CFE694630466A
:1016300001F07DFE0746684601F0DAFD6FB1A4B205
:101640000121204602F04AFF2046294602F057FFBA
:10165000012005B0F0BD0125E4E70F49684601F01F
:1016600011FE3046694601F062FE0646684601F00A
:10167000BFFD3EB10A34E2E74FF0FF30E9E76FF01B
:101680000100E6E76FF00200E3E700BF57720A08C7
:101690005C720A083D720A0855720A08F0B5012109
:1016A00085B0074601F055FEA0F13005072D044630
:1016B0002CD81A49684601F0E5FD6946384601F024
:1016C00036FE0646684601F093FD56B1ADB2284697
:1016D000002102F003FF284605B0BDE8F04002F00B
:1016E0003ABF0F49684601F0CDFD6946384601F022
:1016F0001EFE0546684601F07BFD5DB1263CA4B2A6
:101700002046314602F0EAFE2046E5E74FF0FF3082
:1017100005B0F0BD6FF00100FAE700BF3D720A08A6
:1017200055720A08F0B5012189B0054601F011FE95
:10173000A0F13006072E044640D803222946684609
:1017400001F02CFE1F4904A801F09CFD284604A9C5
:1017500001F0EDFD074604A801F04AFD97B1B6B2CD
:101760000121304602F0BAFE684601F01EFE014635
:10177000304602F007FF0124684601F039FD20469B
:1017800009B0F0BD104904A801F07CFD284604A969
:1017900001F0CDFD054604A801F02AFD5DB1263C0F
:1017A000A4B20121204602F099FE684601F0FDFD39
:1017B00001462046DDE76FF00104DDE74FF0FF341E
:1017C000DDE700BF3D720A0855720A08002101F0EA
:1017D00025BA012101F022BA1C2203885343426832
:1017E000D118D3588A885A83704738B504460D46B5
:1017F00001F004FA00216060284602F06FFE2046E6
:10180000258038BD38B5054602F020FC2888FFF752
:10181000DDFF7D2402F01CFC013C14F0FF042BD002
:10182000022001F05BFA288801F010FAC0B200280B
:10183000F2D002F00BFC2846FFF7CEFF2888FFF716
:10184000C8FF02F005FC4FF4F07001F047FA02F017
:10185000FDFB2888FFF7BAFF462001F03FFA2888F1
:1018600001F0F4F9C4B2B4FA84F402F0F1FB4FF4DD
:10187000CD70640901F032FA204638BDCB0710B5AF
:10188000044619D502F0E2FB2046FFF7A5FF2088A9
:10189000FFF79FFF0A2001F021FA1C2223885343FF
:1018A0006268D118D3588A881A8302F0D1FB372096
:1018B000BDE8104001F012BA02F0C8FB2046FFF765
:1018C0008BFF2088FFF785FF412001F007FA1C22DB
:1018D000238853436268D118D3588A881A8302F048
:1018E000B7FB0520E4E710B5044602F0AFFB208803
:1018F000FFF76FFF2046FFF76FFF032001F0EEF9BF
:101900002088FFF763FF0A2001F0E8F9208801F042
:101910009DF9044602F09CFB352001F0DFF9E0B2AE
:1019200010BD2DE9F04104468846164608270125DA
:1019300018EA050F14BF012100212046FFF79EFF82
:101940006D00013FEDB2F3D15EB902F07FFB20885C
:10195000FFF73CFF2046FFF73FFFBDE8F04102F0F4
:1019600077BBBDE8F081F8B50746082600250124BD
:101970003846FFF7B8FF00B125436400013EE4B2EA
:10198000F6D12846F8BD70B500220C465521064612
:10199000FFF7C7FF651E073415F8011F0022304608
:1019A000FFF7BFFFA542F7D170BD0022CC21FFF7A2
:1019B000B8BF0023038283748360C36070472DE93E
:1019C000F84F857C0446884675B100202082A074BB
:1019D00004F1080308F1FF38103413F8012B9C427E
:1019E00008F8012FF9D104E0FFF70CFF18B92082A5
:1019F000A074BDE8F88F01272A46F0212046FFF7A2
:101A000090FFAA463E462046FFF76DFF814683467B
:101A10002046FFF768FFB9F1010F0FD1012817D158
:101A2000402ED2D984F810A0BAF1000F01D10123C1
:101A3000A374237A002BC8D00120C9E7814504EBA9
:101A4000050322D1227CB24218D91A7A174216D045
:101A50004FF0010B6219137A3B431372594620462B
:101A60007F00FFF70BFF013617F0FF07F6B2CAD170
:101A70000135EDB2082DD3D00127C4E7E8D0082EF8
:101A800000D866744FF0000BB2461A7A22EA0702B9
:101A90001A72E3E703460144002030B58B4215D0AB
:101AA000082213F8014B80EA040515F0010F4FEAF4
:101AB000500018BF80F08C0002F1FF3218BFC0B296
:101AC00012F0FF024FEA5404EDD1E7E730BD704752
:101AD000034A81608261034A0260002202717047FA
:101AE000CF1A0A080009010110B50C46072120464B
:101AF000FFF7D0FFE3791B1A5842584110BD70B56B
:101B000004460E4680681546FFF77CFE3146A06805
:101B1000FFF739FF0022BE21A068FFF702FFA0688F
:101B2000FFF721FF2870A068FFF71DFF6870A0680D
:101B3000FFF719FFA870A068FFF715FFE870A0680D
:101B4000FFF711FF2871A068FFF70DFF6871A0680B
:101B5000FFF709FFA871A068FFF705FFE871A0680B
:101B6000FFF701FF2872A068BDE87040FFF74ABE8A
:101B700010B51446FFF7C3FF08212046FFF78AFF80
:101B8000237A1B1A5842584110BD70B504460D46C1
:101B900016468068FFF736FE2946A068FFF7F3FE79
:101BA00000224E21A068FFF7BCFE0022B178A06899
:101BB000FFF7B7FE0022F178A068FFF7B2FE2B789E
:101BC000102B04D000223179A068FFF7AAFEA0688C
:101BD000FFF718FE2946A068FFF7D5FE48212278B6
:101BE000A068FFF79EFE237813B10A2001F04AFD9A
:101BF000A068BDE87040FFF705BE38B504460D4645
:101C00008068FFF7FFFD2946A068FFF7BCFE0022B1
:101C1000B421A068FFF785FEA068FFF764FE0546C3
:101C2000A068FFF7EFFDB5FA85F0400938BDF0B5C3
:101C300085B0144601AA07460E46FFF799FF0546F0
:101C400090B13378102B0FD00B2C10D00C2C03D06C
:101C50000A2C0ED13F2300E07F233146384601AAEB
:101C60008DF80830FFF791FF284605B0F0BD5F23DF
:101C7000F3E71F23F1E71FB50B78102B16D001AA4D
:101C8000FFF776FF50B19DF808305F2B10D008D8D1
:101C90001F2B0FD03F2B14BF00200A2005B05DF88A
:101CA00004FB7F2B14BF00200C20F7E70C20F5E786
:101CB0000B20F3E70920F1E770B5044686B0806891
:101CC000FFF777FE002301262371A06801A9FFF723
:101CD00076FEF8B1204601A9FFF706FF0028F4D0F0
:101CE00023782BB9204601A9FFF787FF00B12670A2
:101CF000204603AA01A9FFF702FF204601A9657843
:101D0000FFF7B9FF854238BF054623796570013377
:101D10002371DAE706B070BD1FB501AAFFF7EFFE29
:101D20009DF80400003818BF012005B05DF804FBE1
:101D30000939C9B202299ABF024B33F9110040F2A6
:101D4000EE20704760720A0870B50446FFF7F0FF96
:101D50001646054682B1E37873B1237863B900F083
:101D6000C5FF054431462046FFF7D6FF18B900F0FD
:101D7000BDFF8542F6D870BD2846BDE8704001F031
:101D800081BC10B504468068FFF73CFDA068FFF7F2
:101D90000CFE44212278A068FFF7C3FDA37833B17D
:101DA000204661780022BDE81040FFF7CDBF10BD8E
:101DB00010785378C00040EAC3200B7800B2102B93
:101DC0000BD1D1799379C000CB1ADB0193FBF1F3EE
:101DD00020F07F00103B184400B2704730B585B04A
:101DE00001AA04460D46FFF7C3FE30B1294620463E
:101DF00001AAFFF7DDFF05B030BD0148FBE700BFDA
:101E000010F8FFFF10F5FE6F08B506DD04F054FC76
:101E10004FF0705104F0A4FC08BD0148FCE700BF7E
:101E20000000FEC208B5FFF7D9FFBDE80840FFF784
:101E3000E9BFF8B5064617460C4602F0F7FB3178C5
:101E400002F028FA02F0F2FB036821469B689847EB
:101E500002F0ECFB02F029FA041E18BF022402F083
:101E6000E5FB01223178002502F011FA02F0DEFBD9
:101E700003681B69984730B102F0D8FB03685B69BF
:101E80009847C5B2F2E720463D70F8BD13B5044649
:101E900002F0CCFB02F0CCF900238DF8063042F2C0
:101EA00010739DF80620013B0132D2B29BB28DF82F
:101EB0000620002BF5D102F0B9FB03681B69984797
:101EC00028B102F0B3FB03685B699847F3E78DF82C
:101ED0000700202120460DF10702FFF7AAFF20B9D5
:101EE0009DF80700813818BF012002B010BDF8B579
:101EF000074614460E461D4602F098FB397802F05C
:101F0000C9F902F093FB036831469B68984702F0D9
:101F10008DFB02F0CAF9064610BB02F087FB2A4689
:101F2000397802F0B4F9254402F080FB03681B699C
:101F3000984748B1AC4207D002F078FB03685B6970
:101F4000984704F8010BEFE702F070FB03681B6988
:101F5000984730B102F06AFB03685B699847F3E782
:101F600002263046F8BD70B5064614460D4602F00E
:101F70005DFB317802F08EF902F058FB03682946C8
:101F80009B68984702F052FB036821469B6898477C
:101F900002F04CFB02F089F9002818BF022070BD46
:101FA000F8B5074614461D460E4602F03FFB397849
:101FB00002F070F902F03AFB036831469B689847DB
:101FC0002544AC4207D002F031FB036814F8011B32
:101FD0009B689847F5E702F029FB02F066F90028B4
:101FE00018BF0220F8BD0000044A017042600021C1
:101FF0000022C0E9031182604261704700401C4624
:10200000042313B502210DEB03020446FFF76FFF13
:1020100038B9BDF804305BBAE381BDF806305BBA6D
:10202000A38102B010BD07B500210DF10702FFF733
:1020300000FF9DF8070000F0010003B05DF804FB0D
:1020400007B500210DF10702FFF7F3FE30B99DF847
:102050000700C0F3C00003B05DF804FB0020FAE7FE
:1020600007B500210DF10702FFF7E3FE30B99DF837
:102070000700C0F3001003B05DF804FB0020FAE78E
:1020800007B5E0210DF10702FFF7D3FE20B99DF857
:10209000070003B05DF804FBFF20FAE737B50C46F4
:1020A0000DF1070201210546FFF7C3FE78B9042CA4
:1020B00028BF04249DF80720012122F0700242EA83
:1020C0000412D2B228468DF80720FFF74CFF03B068
:1020D00030BD000037B51E4B04460193FFF7D6FE16
:1020E0000546B8B90423FF210DEB03022046FFF794
:1020F00057FF184A8DF803509DF80330013A03F159
:102100000103DBB28DF80330F6D12046FFF78BFFD9
:1021100010B1032003B030BD2046FFF7A1FF002817
:10212000F7D002F083FA217802F0B4F802F07EFAD8
:102130000368F4219B68984702F078FA02F0B5F83A
:1021400020B901212046FFF7A9FFE3E70220E1E7DC
:1021500011E5728A400D030073B504460D46104622
:102160003549164604F09AFC002863D130463349BD
:1021700004F0B2FC00285DD10021284604F08EFC5A
:10218000002857D128462E4904F0A6FC002851D13A
:102190002C49284604F0E4FA04F0CEFC294905460F
:1021A000304604F0DDFA04F0C7FC4FF47A72B5FB58
:1021B000F2F302FB135500228DF805204FF47A72DA
:1021C000B5F5487FDBB228BF01335B00A5F59675F6
:1021D000DBB2B5F5FA7F00F5C3408DF8043000F1AD
:1021E00028003CBF43F001038DF80430B0FBF2F34C
:1021F00002FB1300DBB2B0F5487F28BF0133A0F526
:1022000096705B00DBB2B0F5FA7F8DF8063038BF10
:1022100043F001034FF0000238BF8DF8063004236D
:102220008DF80720052120460DEB0302FFF7B8FECD
:1022300002B070BD0420FBE70000C8C100004842A6
:102240000000C84200007A4404232DE9F743044605
:102250000DEB03020621FFF74AFEBDF804300546E8
:102260005BBA9FB22382BDF806305BBA638298B234
:1022700004F01EFA616804F073FA0646384604F06A
:1022800017FA0146304604F01FFBA06004F02EFC54
:1022900003F0A6FD02F0FEF904F004F903F0B2FD2C
:1022A0001DA3D3E9002306460F4603F003FE324682
:1022B0003B4603F0FFFD32463B4603F0FBFD18A30F
:1022C000D3E90023804689463046394603F0F2FDC3
:1022D00015A3D3E9002303F037FC02460B46404622
:1022E000494603F031FC02460B460020124903F038
:1022F0000BFF04F0D7F803F085FD0DA3D3E900230D
:1023000003F020FC04F0CEF86061284603B0BDE87D
:10231000F08300BFAFF30080190D1714EB88773EF0
:10232000C2C3B46FEEAF2E3F90B8DE6EFD7F523F5A
:1023300066666666661271400000F03F80897047ED
:10234000C0897047406970470368C9B29B681847E5
:10235000704708B502F06AF9402101F09FFF02F0D2
:1023600065F9FC21FFF7F0FF02F060F9C921FFF7E2
:10237000EBFF02F05BF901F098FF02F057F9012240
:10238000402101F084FF02F051F903685B6998472E
:10239000C0B208BD38B5E02914BF032502250C469C
:1023A00002F044F9402101F079FF02F03FF903689F
:1023B00021469B68984702F039F901F076FF6420C6
:1023C00001F060F902F032F92A46402101F05FFF86
:1023D000652402F02BF903681B699847A84206DAC6
:1023E000012001F04FF9013CF3D164200FE002F02D
:1023F0001DF903685B699847044602F017F9036802
:102400005B69984700F0FC0040EA042080B238BDC8
:1024100008B5F521FFF7BEFF03F0E2FC0022074BF1
:1024200003F048FD0022064B03F044FD0022054B5B
:1024300003F088FB04F036F808BD00BF00405F40A1
:102440000000F03E0000184008B5F321FFF7A2FF9E
:1024500003F0C6FC08A3D3E9002303F02BFD002200
:10246000094B03F027FD06A3D3E9002303F06AFB21
:1024700004F018F808BD00BF0000000000E8654047
:10248000CDCCCCCCCC6C47400000F03E000000002E
:1024900008B5FFF7D9FF03F0B5FC07A3D3E9002384
:1024A00003F008FD0022064B03F04EFB03F0FAFF99
:1024B00008BD00BFAFF30080CDCCCCCCCCCCFC3F72
:1024C0000000404010B50C4602F0B0F8602101F069
:1024D000E5FE02F0ABF8036821469B68984702F0DE
:1024E000A5F8002101F0DDFE02F0A0F80122602134
:1024F00001F0CDFE02F09AF803685B699847C0B21C
:1025000010BD000038B5054602F090F801F090FECD
:102510000C212846FFF7D6FF04462846FFF719FF8F
:10252000152818D0322824D1C42C03D001F00AFD7C
:10253000154902E001F006FD144900F09CFF01F08E
:1025400001FD134911E001F0FDFC0F4908E001F025
:10255000F9FC104909E0C42CF5D101F0F3FC0B495A
:1025600000F089FF01F0EEFC0B49BDE8384000F0B7
:1025700082BFC42CEBD101F0E5FC044900F07BFFE5
:1025800001F0E0FC0549F0E790720A0866720A085B
:1025900083720A08C5720A0876720A08A4720A08C9
:1025A00038B514460D4602F041F8602101F076FE80
:1025B00002F03CF8036829469B68984702F036F819
:1025C000036821469B68984702F030F8BDE8384020
:1025D000012101F066BE10B526210446FFF772FF07
:1025E000262100F07F022046BDE81040FFF7D8BF4B
:1025F000072928BF072138B50D4626210446FFF7D5
:1026000061FF00F0C70242EAC5022046BDE838403B
:102610002621D2B2FFF7C4BF07221321FFF7C0BFA4
:1026200010B526210446FFF74DFF262100F0FD02DC
:102630002046FFF7B5FF26212046FFF743FF40F075
:10264000020226212046BDE81040D2B2FFF7A8BF03
:102650002DE9F04180460021FFF734FF002140467C
:10266000FFF730FF01F0E2FF602101F017FE01F0FB
:10267000DDFF0121FFF768FE01F0D8FF002101F026
:1026800010FE01F0D3FF0322602101F000FE0328B9
:102690002ED101F0CBFF03685B699847044601F037
:1026A000C5FF036824045B699847064601F0BEFF36
:1026B000036836025B699847074604F47F04404686
:1026C000B6B2FFF7ADFF3443F8B20443C0F30110D4
:1026D00003F0EEFF4FF07A5104F042F80546A009EE
:1026E00003F0EAFF0146284603F032FFBDE8F0811F
:1026F0000048FBE700C079C4F8B50021064640F267
:102700005924FFF7DFFE00213046FFF7DBFE82078A
:1027100007D4013C01D12948F8BD012000F0B2FFE7
:10272000F1E701F083FF602101F0B8FD01F07EFFC9
:102730000421FFF709FE01F079FF002101F0B1FD4E
:1027400001F074FF0222602101F0A1FD0228E2D114
:1027500001F06CFF03685B699847C7B2054601F05A
:1027600065FF03685B699847C4B23046FFF758FFBE
:102770002B0641BF04EB07246442C4F3072704F08F
:10278000F0044FEA14104CBF0126002603F028FB8A
:1027900000220B4B03F08EFB03F084FE0546384607
:1027A00003F08AFF0146284603F0D2FE002EB3D084
:1027B0000146002003F0CAFEAEE700BF00C079C4A6
:1027C0000000B03F08B5FFF797FF03F01BFB0022A6
:1027D000064B03F06FFB0022054B03F095FC002233
:1027E000044B03F0B1F903F05DFE08BD0000224088
:1027F00000001440000040400368C9B29B681847BD
:10280000704738B504460D4601F010FF217801F0FD
:1028100041FD01F00BFF036829469B68984701F0D2
:1028200005FF002101F03DFD01F000FF01222178AC
:1028300001F02DFD01F0FAFE03685B699847C0B214
:1028400038BD812108B5FFF7DCFFC0F3001008BDDB
:10285000812108B5FFF7D5FF10F0030002D0012851
:1028600018BF022008BD38B504460D4601F0DEFE53
:10287000217801F00FFD01F0D9FE45F02001FFF7AE
:10288000BBFF01F0D3FE002101F00BFD01F0CEFEF5
:102890002178022201F0FBFC01F0C8FE03685B69AD
:1028A0009847044601F0C2FE03685B69984744EA12
:1028B000002080B238BD08B58C21FFF7D4FF08BDD9
:1028C00008B58E21FFF7CFFF08BD00000000000013
:1028D0002DE9F8430646FFF7F3FF05463046FFF7BC
:1028E000EAFF04463046FFF7E6FF80463046FFF732
:1028F000E7FF07463046FFF7ABFF01280FD002285D
:1029000010D090B941F2B6339D4201D89C420CD907
:1029100000214FF07E5003F0D7FFBDE8F88349F265
:102920003813F1E74FF6FE73EEE7404603F0C0FEC2
:102930000446384603F0BCFE2146054603F0C4FFBA
:1029400007463046FFF784FF002847D001285CD0B7
:102950003046FFF776FF58B94FF08341204603F029
:10296000FFFE4FF083410446284603F0F9FE05467A
:102970004FF07C51384604F09BF8002857D0204691
:1029800003F040FA06460F462846214603F09CFF16
:1029900003F038FA52A3D3E9002301F0B5FE52A3A5
:1029A000D3E90023804689463046394603F082FA4F
:1029B0004FA3D3E9002304460D463046394603F0C1
:1029C00079FA42464B4603F075FA02460B4620461A
:1029D000294603F0B7F803F065FD9EE7204603F0B3
:1029E00011FA45A3D3E9002303F064FA03F05AFD7A
:1029F0000446284603F006FA3FA3D3E9002303F078
:102A000059FA03F04FFD0546A2E7204603F0FAF914
:102A10003BA3D3E9002303F04DFA03F043FD044642
:102A2000284603F0EFF936A3D3E90023E7E7384659
:102A300003F0E8F934A3D3E9002306460F4603F078
:102A4000B5FCB0B1204603F0DDF931A3D3E9002392
:102A500003F030FA064628460F4603F0D3F92EA3BA
:102A6000D3E9002303F026FA02460B4630463946E6
:102A7000AFE730462AA3D3E90023394603F096FC9A
:102A800080B1204603F0BEF927A3D3E9002303F069
:102A900011FA064628460F4603F0B4F924A3D3E9F9
:102AA0000023DFE7304624A3D3E90023394603F0AF
:102AB0007DFC80B1204603F0A5F921A3D3E90023D2
:102AC00003F0F8F9064628460F4603F09BF91EA3CB
:102AD000D3E90023C6E700201FE700BFAFF3008063
:102AE000666666666666F63FC58F31772D219F3F25
:102AF0005839B4C876BEAF3F6969696969693D40B4
:102B0000F0FBBEEFFBBE0F4085EB51B81E85E33FE7
:102B1000C7BAB88D06F0963F5839B4C876BE9F3F05
:102B20009A9999999999E93F2D431CEBE2368A3F8E
:102B30004BC8073D9B558F3FCDCCCCCCCCCCF43F84
:102B4000B2632310AFEB573FD2FBC6D79E59523F1B
:102B500070B5064614460D4601F068FD317801F067
:102B600099FB01F063FD036829469B68984701F0D3
:102B70005DFD036821469B68984701F057FD01F011
:102B800094FB003818BF012070BD0A4611B980219E
:102B9000FFF7DEBF0322FAE708B501700121FFF756
:102BA000F4FF002008BD38B50D4681210446FFF72B
:102BB00028FE3DB900F0EF022046BDE838408121F3
:102BC000FFF7C6BF40F01002D2B2F5E738B50C46A9
:102BD00081210546FFF715FE00F0FC021CB1012C17
:102BE00007D142F001022846BDE838408121FFF7B5
:102BF000AFBF022C08BF42F00202F4E708B5024B57
:102C00001B681B68019308BDB001060808B5024B9C
:102C10001B685B68019308BDB001060808B5024B4C
:102C20001B689B68019308BDB001060808B5024BFC
:102C30001B68DB68019308BDB001060808B5024BAC
:102C40001B681B69019308BDB001060808B5024B5B
:102C50001B685B69019308BDB001060808B5024B0B
:102C60001B689B69019308BDB001060808B5024BBB
:102C70001B68DB69019308BDB001060808B5024B6B
:102C80001B681B6A019308BDB001060808B5024B1A
:102C90001B685B6A019308BDB001060808B5024BCA
:102CA0001B689B6A019308BDB001060808B5024B7A
:102CB0001B681B6B019308BDB001060808B5024BE9
:102CC0001B689B6F019308BDB001060808B5024B55
:102CD0001B685B68019308BD9C01060808B5024BA0
:102CE0001B68DB68019308BD9C01060808B5024B10
:102CF0001B685B69019308BD9C01060808B5024B7F
:102D00001B685B6C019308BDD001060808B5024B37
:102D10001B689B6C019308BDD001060808B5024BE7
:102D20001B689B69019308BDC401060808B5024BE6
:102D30001B685B6A019308BDC401060808B5024B15
:102D40001B689B6A019308BDC401060808B5024BC5
:102D50001B68DB6A019308BDC401060808B5024B75
:102D60001B681B6B019308BDC401060808B5024B24
:102D70001B685B6B019308BDC401060808B5024BD4
:102D80001B689B6B019308BDC401060808B5024B84
:102D90001B681B6C019308BDC401060808B5024BF3
:102DA0001B68DB6C019308BDC401060808B5024B23
:102DB0001B68DB6C019308BDAC01060808B5024B2B
:102DC0001B689B6D019308BDAC01060808B5024B5A
:102DD0001B68DB6D019308BDAC01060808B5024B0A
:102DE0001B681B6E019308BDAC01060808B5024BB9
:102DF0001B685B6E019308BDAC01060808B5024B69
:102E00001B689B6E019308BDAC01060808B5024B18
:102E10001B68DB6E019308BDAC01060808B5024BC8
:102E20001B681B6F019308BDAC01060808B5024B77
:102E30001B685B6F019308BDAC01060808B5034B26
:102E40001B68D3F88030019308BD0000AC01060870
:102E500008B5034B1B68D3F89030019308BD000000
:102E6000AC01060808B5024B1B68DB69019308BD7D
:102E7000B401060808B5024B1B681B6A019308BD24
:102E8000B401060808B5024B1B681B68019308BD16
:102E9000D801060808B5024B1B681B69019308BDE1
:102EA000D801060808B5024B1B685B69019308BD91
:102EB000D801060808B5024B1B689B69019308BD41
:102EC000D801060808B5024B1B68DB69019308BDF1
:102ED000D801060808B5024B1B681B6A019308BDA0
:102EE000D801060808B5024B1B689B6C019308BD0E
:102EF000C001060808B5024B1B685B68019308BD5A
:102F0000A401060808B5024B1B685B69019308BD64
:102F1000A401060808B5024B1B68DB6C019308BDD1
:102F2000A401060808B5024B1B685B6D019308BD40
:102F3000A401060808B5034B1B68D3F89030019331
:102F400008BD0000A401060808B5034B1B68D3F8B0
:102F50009C30019308BD0000A401060808B5034B8E
:102F60001B68D3F8B430019308BD0000A401060823
:102F700008B5024B1B685B68019308BDC8010608D1
:102F800008B5024B1B689B68019308BDC801060881
:102F900008B5024B1B68DB68019308BDC801060831
:102FA00008B5024B1B681B69019308BDC8010608E0
:102FB00008B5024B1B685B69019308BDC801060890
:102FC00008B5024B1B689B69019308BDC801060840
:102FD00008B5024B1B68DB69019308BDC8010608F0
:102FE00008B5024B1B681B6A019308BDC80106089F
:102FF00008B5024B1B681B6B019308BDC80106088E
:1030000008B5024B1B685B6B019308BDC80106083D
:1030100008B5024B1B681B6C019308BDC80106086C
:1030200008B5024B1B685B6C019308BDC80106081C
:1030300008B5024B1B681B68019308BDCC0106084C
:1030400008B5024B1B685B68019308BDCC010608FC
:1030500008B5024B1B689B68019308BDCC010608AC
:1030600008B5024B1B685B69019308BDCC010608DB
:1030700008B5024B1B681B6A019308BDCC0106080A
:1030800008B5024B1B68DB6A019308BDCC0106083A
:1030900008B5024B1B681B6B019308BDCC010608E9
:1030A00008B5024B1B68DB6B019308BDCC01060819
:1030B00008B5024B1B681B68019308BDA0010608F8
:1030C00008B5024B1B685B68019308BDA0010608A8
:1030D00008B5024B1B689B68019308BDA001060858
:1030E00008B5024B1B68DB68019308BDA001060808
:1030F00008B5024B1B685B6A019308BDA001060876
:1031000008B5024B1B68DB6A019308BDA0010608E5
:1031100008B5024B1B681B6B019308BDA001060894
:1031200008B5024B1B68DB6B019308BDA0010608C4
:1031300008B5024B1B681B6C019308BDA001060873
:1031400008B5024B1B685B6C019308BDA001060823
:1031500070B5002604460D4640F8086FFFF7CEFD17
:1031600028462570FFF77EFE2046666070BD10B5CC
:103170000446006818B1FFF7A3FF0023236010BDC9
:1031800010B50446FFF7F3FF204610BD07B50B4608
:1031900000210246009101208C21FFF7DFFE03B0E1
:1031A0005DF804FB01460020FFF7F0BF0020FFF7A9
:1031B000F9BF00000222002010B5084B084C1A602D
:1031C000084BC4E90000A360FFF794FE2046BDE869
:1031D0001040054A054901F051BA00BF5C050020C6
:1031E000500500200000FFFF8800002081310A0800
:1031F00010B504460068FFF763FF204610BD10B508
:103200000446006808B1FFF75BFF0023C4E90133FF
:10321000236010BD38B504460D4600680131FFF744
:1032200057FF10B1C4E90005012038BD10B503688F
:10323000044623B143688B4201D3012010BD2046D0
:10324000FFF7E8FF0028F9D0A368002BF5D122682A
:103250001370F2E770B50E46114604461546FFF7A7
:10326000E5FF20B92046FFF7CAFF204670BD2A4679
:1032700031462068A56003F095FC00212268A36810
:10328000D154F2E738B5002304460D46C0E90033B7
:103290008360037339B1084603F0EDFC294602460A
:1032A0002046FFF7D7FF204638BD884210B50B46B1
:1032B000044604D0096821B19A68FFF7CBFF204685
:1032C00010BDFFF79CFFFAE7002310B50446C0E9E4
:1032D000003383600373FFF7E8FF204610BD08B595
:1032E00082683AB921B10878B0FA80F0400900E06C
:1032F000012008BD006809B90078F5E703F096FCE5
:10330000F2E7134610B58A688468A41A9C420AD36F
:10331000006838B1096841B1184403F0B4FCB0FA50
:1033200080F0400910BD0020FCE70846FAE78268FB
:103330008B689A4202D30022FFF7E3BF0020704758
:1033400083688B4203D9006810B1405C704700204D
:103350007047FFF7F5BF0000F8B51D469A4288BFD9
:1033600013460F46144688BF2C460B4988BF1D469E
:103370000646FFF787FFBB68A3420AD33968AB4212
:1033800094BFC4EB0302C4EB050230462144FFF7AF
:1033900061FF3046F8BD00BF7E6E0A0810B50446D6
:1033A0008B68FFF7D9FF204610BD006808B103F015
:1033B000E7BB70470EB4FFB509AD55F8047B044672
:1033C0002B463A46052102A80195FFF791FE0646D5
:1033D0000B492046FFF756FF31462046FFF726FFF0
:1033E000206830B12B463A46711C0195FFF780FEEC
:1033F000A060204604B0BDE8F04003B0704700BFB5
:103400007E6E0A08F8B506460D4600248F18BD42A8
:103410000CD0336830469B6815F8011B9847031E93
:1034200001DB1C44F3E7002C08BF1C462046F8BD16
:1034300070B505460C46084649B103F01CFC2B68E4
:10344000024621462846BDE87040DB68184770BD3B
:1034500008B5FFF7EDFF08BD03689B68184738B54E
:103460000D210546FFF7F8FF0A2104462846FFF71D
:10347000F3FF204438BD38B50546FFF7D9FF0446B1
:103480002846FFF7ECFF204438BD0023012A98BFEF
:103490000A2230B58BB00C468DF8243009A9254698
:1034A000B4FBF2F404FB1253DBB2092B94BF3033AC
:1034B0003733DBB2AA4201F8013DF0D9FFF7B8FF7C
:1034C0000BB030BD2DE9F74F054619461046924620
:1034D0001F469DF8306002F087FF40B151492846F1
:1034E000FFF7A6FF0446204603B0BDE8F08F27F0A3
:1034F00000444FF0FF32504621464B4B02F074FF20
:1035000048B94FF0FF3250462146474B02F04EFF7C
:1035100008B94649E3E74FF0604250463946444B0C
:1035200002F058FF08B14349D9E74FF060425046D6
:103530003946414B02F030FF0028F4D1002200232D
:103540005046394602F028FF044630B12D21284666
:10355000FFF782FF044607F100474FF0000B002001
:103560004FF000083549DFF8D8905FFA8BF39E42A0
:1035700006D942464B4602F0C7FD0BF1010BF4E7BA
:103580003B46524602F0E0FA8946804602F06AFF66
:10359000074602F015FC02460B464046494602F03B
:1035A000D1FA0A228046894628463946FFF76DFF40
:1035B0000444002E97D028462249FFF739FF4FF0E8
:1035C000000ADFF87CB00444002E8CD052465B46E3
:1035D0004046494602F06EFC8046894602F01AFFDA
:1035E000071E1BDA2D212846FFF736FF03467942D6
:1035F0000A2228460193FFF748FF019B013E03443E
:1036000038461C4402F0ECFB02460B464046494655
:1036100002F098FAF6B280468946D5E7394600238B
:10362000E6E700BFD9720A08FFFFEF7FDD720A08E4
:10363000FFFFEF41E1720A08FFFFEFC10000E03F2A
:103640000000244070700A089DF800100091FFF7F8
:1036500039BF002340681A461946FFF7A9BC00008D
:10366000014B024A1A60704760050020E5720A08A3
:10367000024B1A68024B1A60704700BF1C00002002
:10368000640500200021FFF73DBC10B583680446A7
:1036900013B1032201469847204610BD10B50446D9
:1036A000FFF7F3FF204610BD13B56C460B460246EC
:1036B00003C884E8030093E8030082E8030094E869
:1036C000030083E8030002B010BD0000002303489C
:1036D000034A0449836000F0D1BF00BF68050020A1
:1036E000880000209D360A08014B1860704700BF13
:1036F0002400002008B5134B43B100F023FC0368FD
:103700001B699847002801DDAFF300800E4B43B1E1
:1037100000F0FAFC03681B699847002801DDAFF34D
:1037200000800A4B0BB1AFF30080094B43B100F0AE
:1037300039FC03681B699847002801DDAFF300805E
:1037400008BD00BF000000000000000000000000F5
:103750000000000008B5FFF7CDFFFFF7C7FA014BE7
:10376000186008BDF00500200548064A08B5121A81
:10377000054903F017FA054B054A1A6008BD00BF5A
:10378000004002400440024010760A080040024017
:103790001E1C279A002307B51A466FF07701009385
:1037A000FFF7D2FB03B05DF804FB000007B54388C8
:1037B0000A2B08D0502B0BD1094B1B684BB103B01F
:1037C0005DF804EB1847FFF7E5FF03B05DF804FB75
:1037D00000231A466FF077010093FFF7B5FBF4E77B
:1037E0007C050020002110B51148FFF7A9FC114B02
:1037F0001A68114B9A420CBF012200220F4B1A701B
:1038000001D0FFF7B1FFFFF761FA044603F0E0F9DA
:103810000B4B13B12046AFF3008000210848FFF79F
:103820003FFCBDE8104000210648FFF783BB00BF06
:10383000E9360A08004002401E1C279A780500203D
:1038400000000000AD370A0870470020704710B52F
:103850000446102100F017FF204610BD08B5FFF701
:10386000F6FF08BD002230B54FF69C7402608480DC
:103870008D888C800C68858004600A6030BD10B52E
:1038800004460068FFF71CFC204610BD38B5C4682C
:10389000F4B12378022B03D104F10C00FFF7EFFF02
:1038A000656835B12846FFF7F0FE1021284600F084
:1038B000EAFEA56835B12846FFF7E7FE1021284645
:1038C00000F0E1FE2046BDE83840142100F0DBBEE8
:1038D00038BD10B588B004466846FFF7D3FC69468A
:1038E00004A8FFF7F1FC04A8A047044604A8FFF7CA
:1038F0007FFC6846FFF77CFC204608B010BD1FB572
:1039000000231024CDE90201019269461A461846A7
:10391000ADF80230ADF80040FFF792FB04B010BDE7
:103920000B6803604B68436013B15A6801325A60F8
:10393000704737B5044668460D46FFF7F1FF009B18
:10394000019A23600023626001A801930093FDF7B0
:10395000F7FB35B1281DFDF7F3FB0821284600F0E1
:1039600092FE204603B030BD826810B50AB900F05F
:103970008EFEC368BDE81040184708B5006800F126
:103980001001FFF7F1FF08BD826810B50AB900F019
:103990007EFEC368BDE81040184708B5006800F116
:1039A0001001FFF7F1FF08BD38B50023044603609E
:1039B00010200D46FCF771FB28B10123C0E901334B
:1039C000024BC56003602060204638BD10730A08B2
:1039D00038B5002383608B6804460D462BB1022264
:1039E0009847EB68E360AB68A360204638BD0000F1
:1039F000F0B589B004686846FFF734FF4FF0020362
:103A0000D4E84F2F002A03D1C4E8413F0029F7D161
:103A100025D104F10C0569462846FFF723FF012351
:103A2000BFF35B8F63700020BFF35B8F04F108036B
:103A300053E8006F43E80002002AF9D1BFF35B8F1F
:103A40006EB1FFF767FA78B129463046FFF78CFF71
:103A50003046FFF71AFE1021304600F014FE68468B
:103A6000FFF70DFF09B0F0BD314602A8FFF7B0FF28
:103A7000E068B4F9105008B103F0E2F806901020A5
:103A8000ADF81C50FCF709FB0546E8B1002787603C
:103A90001820FCF702FB044688B10146876002A8A3
:103AA000FFF702FE049BA268A360059B0492E268F4
:103AB00006A9E36004F110000592FFF7D3FE084B5E
:103AC0002C60EB60074BAB6006A8FFF7D8FE02A89E
:103AD000FFF7DBFD002229460348FFF723FAB7E78B
:103AE0007B390A08053C0A088D410A082DE9F04790
:103AF0008AB005460C46174698469DF84890FFF751
:103B0000AFFA07AE824638BB4FF62E73059005A973
:103B10003046ADF81830FFF7A5FE1420FCF7BDFACB
:103B2000044648B1022303700123C0E901AA43708F
:103B300031460C30FFF796FE2846214640F8044BEC
:103B4000FFF732FF3046FFF79AFE05A8FFF797FE12
:103B500028460AB0BDE8F0870C234FF0000A142075
:103B6000CDE908AA0793FCF798FA014628B1C0E905
:103B700001AA80F800A080F801A004A80391FFF733
:103B800013FF1F4B08200893FCF787FA824610B1F9
:103B900003A9FFF7C5FE42463946204600965FFA64
:103BA00089F3CDF824A0FFF763FAB8B9039B5B78DB
:103BB00003F0FF0293B94FF69C7305A903A8059281
:103BC000ADF81830FFF714FF05A8FFF758FE05A859
:103BD0000999FFF7AEFE06A8FDF7B2FA03A905A8FA
:103BE000FFF79EFE059B069A2B6000236A6006A8DD
:103BF00006930593FDF7A4FA04A8FDF7A1FAA7E739
:103C0000813C0A08012AF8B5054603D10B68036018
:103C10000020F8BD022A10D0032AF9D10468002C34
:103C2000F6D004F11000FFF72AFE2046FFF72DFD25
:103C30001821204600F027FDEAE718200E68FCF75F
:103C40002CFA044650B13146FFF7C2FE3069B6F98E
:103C5000147008B102F0F4FF2061A7822C60D7E74E
:103C600038B5002383608B6804460D462BB10222D1
:103C70009847EB68E360AB68A360204638BD00005E
:103C8000F0B5044689B00D4601A81146FFF751FE74
:103C9000A4B124B21DB1284602F0D2FF054601A806
:103CA00003A90395ADF81040FFF7A2FE03A8FFF7A4
:103CB000E6FD02A8FDF744FA09B0F0BD0123019D1D
:103CC000D5E84F2F002A03D1C5E8413F0029F7D19D
:103CD000EFD12B73BFF35B8F6B70BFF35B8F2B1D2B
:103CE00053E8006F43E80042002AF9D1BFF35B8F2D
:103CF000002EDED02046FFF70DF9074660B13046B2
:103D000005F10C01FFF740FE3046FFF7BEFC102125
:103D1000304600F0B8FCCCE7314603A8FFF7A0FF1F
:103D20002B7B10208DF81C30FCF7B7F90546D0B17D
:103D300087601420FCF7B1F9044678B1014687602A
:103D400003A8FFF7B1FC059BA268A360069B059240
:103D5000E268E3609DF81C3006922374064B2C60E9
:103D6000EB60064BAB6003A8FFF78FFC00222946EF
:103D70000348FFF7D7F8C7E79B390A08853D0A08CB
:103D80008D410A08012A70B5044603D10B6803600F
:103D9000002070BD022A0CD0032AF9D10468002C3F
:103DA000F6D02046FFF771FC1421204600F06BFC92
:103DB000EEE714200E68FCF770F9054620B1314695
:103DC000FFF74EFF337C2B742560E1E77047F8B5B1
:103DD0000E46002400F10807051D17F8011D0A22F0
:103DE0003046FFF752FBAF42044401D12046F8BDF4
:103DF000002CF2D02E213046FFF72EFB0444ECE7D6
:103E000010B50446182100F03EFC204610BD00000D
:103E100010B50446044B1122002140F8043B02F087
:103E2000CFFE204610BD00BF2C730A080346074A88
:103E300010B543F8042B01F1100251F8044B9142E4
:103E400043F8044BF9D10A781A7010BD2C730A0894
:103E5000024AC0E900210422027570472C730A0847
:103E600010B59DF8084044EA0324042344EA0244C0
:103E700044EA01644460037510BD000013B5044CAE
:103E800004609DF810400094FFF7EAFF02B010BDF7
:103E90002C730A0841747047704708B50021007CF4
:103EA000FFF708F840EAE07008BD08B50121007C82
:103EB000FFF700F840EAE07008BD08B5007CFEF7A7
:103EC000F1FF20EAE07008BD08B5007CFEF7E2FFD4
:103ED00020EAE07008BD38B50446007C0D46FEF7C8
:103EE000E1FF002801DC607C28B12946207CFEF738
:103EF000E9FF20EAE07038BD007CFEF7EBBF10B5AB
:103F00000446142100F0BFFB204610BD10B54FF44D
:103F10007A73044608460021C4E90113044B207457
:103F20002360012311466374FEF7ACFF204610BDE9
:103F300040730A0810B504461422002102F040FE26
:103F4000204610BD30B50F4D87B001A8FFF7F2FF36
:103F50002978BFF35B8F11F0010410D12846FCF7DC
:103F6000A2F860B1214601AA0748FFF7CFFF284613
:103F7000FCF79EF8054A0649034800F07FFB02481B
:103F800007B030BD80050020880500208800002093
:103F9000993E0A0810B504461422002102F010FED2
:103FA000204610BD10B50F4C86B001A8FFF7F2FFF8
:103FB0002378BFF35B8FDB0710D42046FCF773F840
:103FC00060B1012101AA0848FFF7A0FF2046FCF7D5
:103FD0006FF8064A0649044800F050FB024806B054
:103FE00010BD00BF840500209C0500208800002033
:103FF000993E0A08004700002DE9FF4100241D46B4
:104000000F4690460646FEF731FE0423A5428DF882
:104010000C30A8BF9DF82830ADF80D408DF80F404A
:10402000A4BF03AC8DF80E303A46434630460649ED
:104030000094A8BF8DF80D50FEF710FEB0FA80F086
:10404000400904B0BDE8F081F53F0A08FEF71EBE46
:10405000FEF714BE70474174704708B5007CFEF748
:1040600095FE20EAE07008BD08B5007CFEF766FE0C
:1040700020EAE07008BD08B5007CFEF76FFE40EA5C
:10408000E07008BD08B5007CFEF760FE40EAE07015
:1040900008BD007CFEF76ABE70B5467C04460D463E
:1040A0002EB12946207CBDE87040FEF73FBE007C63
:1040B000FEF76CFE0028F4DC304670BD10B50446F7
:1040C000142100F0E0FA204610BD00004FF0000C73
:1040D00010B50446084611464FF47A72C4E901C28D
:1040E000044A20742260012262741A46FEF716FE0A
:1040F000204610BD70730A080023007CFEF74EBEF8
:104100000022FFF7F9BF0000F8B51A4E35684DB927
:104110008420FBF7C2FF044618B18422294602F02E
:104120004FFD3460144F3D684DB98420FBF7B5FF57
:10413000044618B18422294602F042FD3C600F4D2E
:104140002978BFF35B8F11F0010411D12846FBF7EA
:10415000AAFF68B1214632683B680948FFF7B6FFFD
:104160002846FBF7A5FF074A0749054800F086FAED
:104170000348F8BDB4050020B8050020B0050020B4
:10418000BC0500208800002055400A0810B583684F
:1041900004460BB900F07BFAC3689847A3681BB1CB
:1041A00003222146204698472046BDE810401021B2
:1041B00000F069BA7047F8B5064615460C468F18E8
:1041C000BC4206D0336830469B6814F8011B984700
:1041D000F6E72846F8BD0022007CFEF7FFBD00216F
:1041E000007CFEF703BE0021007CFEF707BE002125
:1041F000007CFEF70BBE0021007CFEF70FBE10B561
:104200000446142100F03FFA204610BD10B54FF4CB
:104210007A73044608460021C4E90113034B114692
:1042200023602074FEF70AFE204610BDA0730A0822
:104230000023007C1A461946FEF7B8BD7FB5002260
:104240001423CDE90122ADF804300B78007C8DF801
:1042500008304B680393CB6804930B7A01A905934C
:10426000FEF7F6FD07B05DF804FB1FB5003B8DF8C7
:1042700000104FF0640118BF0123039169460192B9
:104280008DF80830FFF7DAFF05B05DF804FB012375
:10429000FFF7EBBF0022007CFEF790BDC9B2FFF72D
:1042A000F9BF0022007CFEF791BD0121FFF7F9BFA5
:1042B000002240681146FEF773BEF0B5154689B07E
:1042C00011220E460446002103A802F079FC28467C
:1042D00002F0D1FC002781B273682846009703AA38
:1042E000FEF700FE30B139462046FFF7B1FD20460B
:1042F00009B0F0BD204603A9FFF798FDF7E70022BB
:1043000040681146FEF76CBE002240681146FEF779
:1043100077BE00224068FEF76BBE0022406881F045
:104320000101FEF755BE002340681A461946FEF704
:1043300047BE002240681146FEF722BE002202213D
:104340004068FEF725BE002340681A46FEF710BEFF
:104350000422024B5A60024A1A607047D0050020BE
:10436000C8730A08002340681A46FEF701BE0022FF
:1043700002214068FEF70CBE002240681146FEF79D
:10438000FFBD002240681146FEF70ABE00234068C8
:104390001A461946FEF70CBE002340681A46194615
:1043A000FEF70EBE00214068FEF732BE00214068D5
:1043B000FEF736BE0022406881F00101FEF708BE1C
:1043C00000224068FEF714BE002240681146FEF746
:1043D00017BE002240681146FEF702BE70B51546B2
:1043E0008EB0044608A8FFF713FD1122002103A890
:1043F00002F0E6FB0026284602F03DFC0A4B009640
:1044000081B25B68284603AAFEF76CFD30B13146E5
:104410002046FFF71DFD20460EB070BD204603A9C3
:10442000FFF704FDF7E700BFD0050020024B034A69
:104430001A6000225A607047D805002004740A08E8
:1044400010B50446806808B1FEF760FC204610BD38
:10445000172870B5044601D9002070BDA0F10D03E6
:10446000022B0BD9012826D800F0E0F80021007CAF
:10447000FEF7DCFC80F00100C0B2EEE7134E3178AD
:10448000BFF35B8F11F001050FD13046FBF70BFE38
:1044900058B129460E48FEF75BFE3046FBF708FE92
:1044A0000C4A0D490A4800F0E9F8094B1878FEF764
:1044B000E1FC0028D0D1123C012C05D8FFF724FEE6
:1044C000007CFEF75BFCD5E70120C6E7E005002095
:1044D000E40500208800002041440A08172838B568
:1044E00004460D460AD8FF2908D0FFF7B1FF28B1CE
:1044F00029462046BDE83840FEF790BB38BD38B5A8
:1045000004460D46FEF792FBFF2810D0062804D87B
:104510004D2323FA00F0C30709D42046FFF798FF84
:1045200028B129462046BDE83840FEF787BB38BD94
:1045300010B50446FEF77AFB031FDBB2012B08D946
:104540002046FFF785FF20B12046BDE81040FEF76A
:104550007DBB002010BD10B5044609289CBF0A345D
:10456000A4B22046FFF774FF50B103212046FEF7A6
:104570004DFB032804D12046BDE81040FEF796BB52
:10458000002010BD38B504460D46FFF761FFF0B1BD
:1045900004212046FEF73AFB042805D12046A9B2A3
:1045A000BDE83840FEF77ABB02212046FEF72EFB1D
:1045B00002280CD12046FEF739FB012801D004283F
:1045C00005D129462046BDE83840FEF777BB38BD07
:1045D000002313B5074C1A46194620460093FFF7EF
:1045E0004DFC2046044A054902B0BDE8104000F0E9
:1045F00045B800BFF405002088000020CD3D0A0822
:1046000070B514232025084E0446036031468560AA
:104610000561284600F039F831466060284600F010
:1046200034F8E060204670BD38740A0830B50F4D8C
:1046300087B02978BFF35B8F11F0010413D12846AE
:10464000FBF731FD78B101A8FFF7DAFF214601AA97
:104650000748FFF7DBFD2846FBF72AFD054A064918
:10466000034800F00BF8024807B030BD0C060020EC
:104670001006002088000020B5410A080B460146BC
:10468000184602F081BAFBF70CBDFBF708BD08B570
:10469000FEF736FDF8B504460D4600F0F5F8174B69
:1046A000064693F900300F4601331AD022462B46B6
:1046B0002046294601F098FE98B9002200232046A2
:1046C000294601F087FE60B90022002320462946D2
:1046D00001F058FE40B1FEF723FD22230026084FCB
:1046E000036030463946F8BDFEF71AFD2122034625
:1046F00004481A60BDE8F84001F0FEB82000002030
:104700000000F0FF3C740A082DE9F8431D460646F8
:104710000F46144600F0B8FA574B804693F9003024
:10472000894601332AD022462B462046294601F0ED
:104730005BFE18BB32463B463046394601F054FE1C
:10474000002841D1002200233046394601F01AFEEC
:10475000C0B1002200232046294601F013FE0028A4
:104760003AD12046294601F0C1F838B12046294601
:104770000022002301F010FE002859D1404649468E
:10478000BDE8F8834046494601F0B0F860B3002226
:1047900000234046494601F0F5FD0028EED03046A2
:1047A000394601F0A3F80028E8D02046294601F058
:1047B0009DF80028E2D0FEF7B3FC22234FF000085A
:1047C0004FF000090360D9E7204629460022002364
:1047D00001F0D8FD0028D1D04FF00008DFF89C9000
:1047E00040464946BDE8F8833046394601F07EF838
:1047F0000028CCD02046294601F078F80028C6D001
:1048000042464B464046494601F0EEFD30BBFEF7BE
:1048100087FC2222034639461A60304600220023D4
:1048200001F0BAFD4FF0000858B9DFF85490A5E741
:10483000FEF776FC21234FF00008DFF84890036074
:104840009CE72046294601F05DF822462B4601F000
:1048500099FD0028E9D1DFF82C908FE7FEF760FC86
:1048600000220023212101601046194601F04CFC72
:104870008046894682E700BF200000200000F03F0C
:104880000000F07F0000F0FF2DE9F04FB1F5801F30
:1048900002460B460F4687B059DA044621F0004520
:1048A0002C4300F0F8800029C0F232810022D64B60
:1048B00001F000FB0F460B46D4496FF035048F42E0
:1048C000024648DC3E15C7F3130707F51521A6F28B
:1048D000FF3601F6647101F48011264406EB11568F
:1048E00081F07F5181F4401141EA070310461946D7
:1048F0000022C74B01F026F9BB1CC3F31303022BA4
:1049000082468B462EDC0022002301F03BFD00286E
:1049100000F0CA80002E00F04B81304601F060FAB2
:10492000A5A3D3E9002306460F4601F0C3FAA4A3CA
:10493000D3E9002304460D463046394601F0BAFA61
:1049400002460B462046294601F0FEF807E0AF4933
:1049500000248F42B6DD1046194601F0F5F807B085
:10496000BDE8F08FA7F5C223A3F27A43002201939A
:104970004FF0804301F0E8F80B4602465946504696
:1049800001F0C2FB0246304614460D4601F028FAFB
:1049900022462B46CDE9040120462946CDE90245B1
:1049A00001F088FA02460B468046894601F082FAF9
:1049B00085A3D3E9002304460D4601F07BFA84A3C6
:1049C000D3E9002301F0C0F822462B4601F072FA29
:1049D00081A3D3E9002301F0B7F822462B4601F06A
:1049E00069FA7FA3D3E9002301F0AEF842464B46B3
:1049F00001F060FA7CA3D3E9002380468946204673
:104A0000294601F057FA7AA3D3E9002301F09CF874
:104A100022462B4601F04EFA77A3D3E9002301F09A
:104A200093F822462B4601F045FA0B4602464946CA
:104A3000404601F089F8C7F5D727019B51371F433E
:104A4000002F8046894655DD0022724B504659465C
:104A500001F030FA52465B4601F02CFA04460D464E
:104A6000002E5CD122462B464046494601F06CF8A8
:104A7000DDE9022301F01EFA02460B4620462946D4
:104A800001F060F802460B465046594601F05AF8CC
:104A900007B0BDE8F08F0022002300205E4901F03E
:104AA00033FB07B0BDE8F08F55A3D3E90023504690
:104AB000594601F0FFF902460B460020554901F026
:104AC00041F8524604460D465B465046594601F0B1
:104AD000F1F902460B462046294601F0EBF904465F
:104AE0000D46002E50D102460B465046594601F065
:104AF00029F834E7002E40F0918002460B465046DC
:104B0000594601F01FF8DDE9022301F0D3F9B9E7B6
:104B100001F018F80022002301F0F6FA1FE726A39F
:104B2000D3E90023DDE9040101F0C4F922462B4654
:104B300006460F464046494601F006F8DDE90223E5
:104B400001F0B8F91EA3D3E9002380468946DDE9C8
:104B5000040101F0AFF902460B464046494600F019
:104B6000F3FF02460B462046294600F0EBFF524673
:104B70005B4600F0E7FF02460B463046394600F040
:104B8000E1FF07B0BDE8F08F304601F029F90AA334
:104B9000D3E900238046894601F08CF908A3D3E9C4
:104BA000002306460F464046494601F083F9D8E700
:104BB00000200021D3E600BF0000E0FE422EE63FC9
:104BC000763C7935EF39EA3D44523EDF12F1C23F7F
:104BD000DE03CB966446C73F599322942449D23FC3
:104BE000935555555555E53F9FC678D0099AC33F13
:104BF000AF788E1DC571CC3F04FA97999999D93F2A
:104C0000555555555555D53F00005043FFFFEF7F93
:104C10000000F03F0000E03F000050C316A3D3E9BE
:104C20000023DDE9040101F045F942464B46044604
:104C30000D465046594600F085FFDDE9022301F09C
:104C400039F90FA3D3E9002306460F46DDE9040135
:104C500001F030F902460B463046394600F072FF4B
:104C600052465B4600F06EFF02460B462046294640
:104C700000F068FF73E600BF0000E0FE422EE63F52
:104C8000763C7935EF39EA3D2DE9F04F994690466B
:104C900029F000451E46134655EA080293B035D068
:104CA0006B4A21F00044944283468A460F460090A6
:104CB00025DC34D0954222DC654A95421DD0002F78
:104CC00036DB00220292002B4CD1614B9D4200F05A
:104CD0009780604B9D4200F0A580B6F1804F00F0B8
:104CE000A3845D4B9E423DD1002F3BDB584651468D
:104CF00013B0BDE8F04F00F02FBD002BDFD0009BBC
:104D000004F1404404F5801423430BD10023514C9B
:104D1000CDE90034DDE9000113B0BDE8F08F08B93A
:104D2000A542C9DD4D4813B0BDE8F04F00F0E4BD29
:104D30004B4A95427EDCA2F1547295420EDD2A1553
:104D4000A2F2FF32142A40F37984C2F1340223FA2A
:104D500002F101FA02F29A4200F0C58400220292A6
:104D6000002BB6D05846514600F0BCFD5B46CDE95D
:104D7000000133BB24B1374B27F040429A4220D187
:104D8000002E07DADDE900230020324901F0BCF9EA
:104D9000CDE90001002FBDDA029B04F1404404F587
:104DA0008014234340F06F84DDE900231046194648
:104DB00000F0C8FE02460B4601F0A6F9CDE900015D
:104DC000A8E7029AFB0F013B0A93134335D0254B0A
:104DD0009D424BDD03F104739D42234B40F3BC83A2
:104DE0009C4240F34F83002E40F34F8316A3D3E938
:104DF00000231046194601F05DF8CDE9000189E76E
:104E0000009A04F1404303F5801313433FF47EAF4F
:104E1000154B9C4240F36383002EC0F23683CDE9EC
:104E2000008977E7002EC0F2F58358465146CDE958
:104E300000016FE70222029245E75A465846534660
:104E40005146B5E7AFF300809C7500883CE4377E9F
:104E50000000F07F0000F03F0000E03F3C740A08D3
:104E6000FFFF3F430000E041FFFFEF3FD44B3B40DB
:104E7000002B40F0CD83DDE900010022D14B01F091
:104E800019F86FF034050C46CDE900012315A3F2A3
:104E9000FF335919CC4BC4F3130242F07F549A42AA
:104EA0000B9144F4401407DDC84B9A4240F3F88359
:104EB00001310B91A4F5801400220023002000256D
:104EC000C349CDE90823CDE90601CDE91023DDE989
:104ED0000001DDE906232146824600F033FEDDE9CC
:104EE0000623A34606460F4650462146CDE90CABA5
:104EF00000F02AFE02460B460020B54901F004F9F5
:104F00008C46834663465A4630463946CDE90EBC48
:104F100000F0D0FF82468B46631043F0005303F548
:104F2000002359190D465A46514600230020CDE969
:104F300000120093044602462B46CDE904ABDDE99E
:104F400000AB5046594600F0B5FF02460B463046CE
:104F5000394600F0F7FDDDE9062306460F462046F8
:104F6000294600F0EFFD02460B46DDE90C0100F09A
:104F7000E9FD52465B4600F09DFF02460B46304677
:104F8000394600F0DFFDDDE90E2300F093FFDDE997
:104F90000445CDE9060122462B462046294600F06D
:104FA00089FF75A3D3E9002304460D4600F082FF74
:104FB00073A3D3E9002300F0C7FD22462B4600F07F
:104FC00079FF71A3D3E9002300F0BEFD22462B46F2
:104FD00000F070FF6EA3D3E9002300F0B5FD224678
:104FE0002B4600F067FF6CA3D3E9002300F0ACFD73
:104FF00022462B4600F05EFF69A3D3E9002300F0B0
:10500000A3FD224606460F462B462046294600F0C1
:1050100051FF02460B463046394600F04BFF04462E
:105020000D46DDE9040152465B4600F08DFDDDE9E9
:10503000062300F03FFF22462B4600F085FD524636
:1050400006460F465B465046594600F033FF02467F
:105050000B46CDE90C2300225E4B00F075FD324675
:105060003B4600F071FD00240D4622462B4650467B
:10507000594600F01FFF002282468B4620462946F3
:10508000544B00F05FFDDDE90C2300F05BFD0246B0
:105090000B463046394600F055FDDDE9042300F0AB
:1050A00009FF224606460F46DDE906012B4600F0C1
:1050B00001FF02460B463046394600F045FD0646E4
:1050C0000F46002432463B465046594600F03CFD10
:1050D00035A3D3E9002320460D4600F0EBFE5246EF
:1050E0005B4682468B462046294600F02BFD024651
:1050F0000B463046394600F025FD2DA3D3E90023A9
:1051000000F0D8FE02460B462046294614461D46AE
:1051100029A3D3E9002300F0CDFE02460B4620462A
:10512000294600F011FDDDE9102300F00DFD0646D3
:105130000B980F4600F054FE04460D4632463B469F
:105140005046594600F000FDDDE9082300F0FCFC64
:1051500022462B4600F0F8FC224600242B4620462F
:105160000D4600F0EFFCDDE9082300F0EBFC5246B1
:105170005B4631E0AFF30080EF4E454A287ECA3FE0
:1051800065DBC9934A86CD3F01411DA96074D13FBB
:105190004D268F515555D53FFFAB6FDBB66DDB3FCD
:1051A000033333333333E33F000000E009C7EE3FFE
:1051B000FD033ADC09C7EE3FF5015B14E02F3EBE6C
:1051C0000000F07F000040438E98030079B60B008A
:1051D0000000F03F0000084000F0B4FC02460B461F
:1051E0003046394600F0AEFC029B0A9A013B13435D
:1051F0004FF000020CBFD24BD24BCDE90089CDE974
:10520000022300230093DDE900ABCDE904015246FF
:10521000404649465B4600F095FC22462B4600F08E
:1052200049FE424606460F46DDE904014B4600F0C2
:1052300041FE02460B463046394600F085FC524698
:1052400006460F465B462046294600F033FE0446DC
:105250000D4630462B463946224600F075FCBA4BC7
:105260008046994289468A4640F3148101F13F43C2
:1052700003F5E003034340F0F6819DA3D3E9002347
:105280003046394600F060FC02460B46404649462F
:105290009046994622462B4600F054FC02460B46A7
:1052A0004046494601F096F8002840F0DC81CAF3F8
:1052B0000A534FF480120020A3F2FE3342FA03F3A4
:1052C0005344A249C3F30A52A2F2FF3241FA02FC4C
:1052D000C3F3130B23EA0C01C2F114024BF4801B3D
:1052E000BAF1000F0B464BFA02FB29460246204654
:1052F000B8BFCBF1000B00F025FC04460D4630464C
:10530000394622462B4600F01FFC89464FEA0B5ACD
:105310004FF0000878A3D3E900234046494600F047
:10532000C9FD22462B4604460D464046494600F03C
:1053300009FC02460B463046394600F003FC70A3D8
:10534000D3E9002300F0B6FD6FA3D3E9002306469E
:105350000F464046494600F0ADFD02460B4630463A
:10536000394600F0F1FB8046894642464B462046CE
:10537000294600F0E9FB22462B4606460F4600F080
:10538000E1FB02460B464046494600F0DBFB324655
:10539000804689463B463046394600F08BFD5CA38B
:1053A000D3E9002304460D4600F084FD5AA3D3E957
:1053B000002300F0C7FB22462B4600F07BFD58A3DC
:1053C000D3E9002300F0C0FB22462B4600F072FD1B
:1053D00055A3D3E9002300F0B5FB22462B4600F08D
:1053E00069FD53A3D3E9002300F0AEFB22462B4610
:1053F00000F060FD02460B463046394600F0A2FB45
:1054000004460D4622462B463046394600F052FDF2
:1054100002460B462046294614461D4600224FF000
:10542000804300F08FFB02460B462046294600F0E1
:105430006BFE424604460D464B463046394600F068
:1054400039FD42464B4600F07FFB02460B462046A4
:10545000294600F077FB32463B4600F073FB0246DC
:105460000B460020374900F06DFB8A44BAF5801FD7
:10547000C0F235815146DDE9022300F01BFDCDE984
:10548000000147E4002EFFF6B1AC00230024CDE973
:1054900000343FE4DFF8B8C021F00043634540F337
:1054A000DA802C4B0B4403430AD122462B4600F0F2
:1054B00049FB32463B4600F083FF00283FF4F7AE3D
:1054C0001DA3D3E90023DDE9020100F0F3FC1AA3D8
:1054D000D3E9002300F0EEFCCDE900011AE4002E30
:1054E000D3DA09F10043CDF80080019312E400BF44
:1054F000FE822B654715973C00000000432EE63FD7
:10550000EF39FAFE422EE63F396CA80C615C20BEF2
:10551000D0A4BE726937663EF16BD2C541BDBB3EB9
:105520002CDE25AF6A56113F93BDBE166CC1663F97
:105530003E5555555555C53F59F3F8C21F6EA50147
:105540000000F0BF0000F03FFFFF8F40FFFF0F00A3
:10555000FFCB904000346F3F9C4293DB7A4B9C42E0
:105560003FF741ACDDE900010022774B00F0EAFA99
:1055700067A3D3E9002304460D4600F09BFC66A315
:10558000D3E9002382468B462046294600F092FC50
:105590000022CDE900016D4B2046294600F08AFC2F
:1055A00002460B465EA1D1E9000100F0CBFA22468B
:1055B0002B4600F07FFC02460B460020644900F0B9
:1055C000C1FA224606460F462B462046294600F0E1
:1055D00071FC02460B463046394600F06BFC52A384
:1055E000D3E9002300F066FC02460B46DDE900012A
:1055F00000F0A8FA06460F4632463B46504659464A
:1056000000F0A2FA002452465B460D462046E3E530
:1056100000253BE45A46002053464B4900F074FDF8
:10562000CDE90001FFF776BB5A465846534651462E
:1056300000F040FCCDE90001FFF76CBB002B40D12E
:10564000C2F1140245FA02F101FA02F2AA4254D060
:105650000293FFF73EBB3E4A934255DCDDE900234F
:105660009246934654E632A3D3E90023DDE90201D2
:1056700000F020FC2EA3D3E9002300F01BFCCDE9B1
:105680000001FFF747BB029B012B7FF443ABDDE931
:105690000045224605F10043CDE90023FFF73ABB60
:1056A00000222C4B4FF48025CDE9062322A3D3E919
:1056B0000023CDE9082322A3D3E90023CDE9102359
:1056C00005E45846514600F00DF95B46CDE900016E
:1056D000002B7FF4B2ABCDF808B0FFF74BBB5A46B6
:1056E00000F0AEF9C7E601F00101C1F10202029239
:1056F000002B3FF4EEAAFFF735BB01F00101C1F129
:1057000002030293FFF7E5BA1B15D2E5AFF3008061
:10571000000000604715F73F44DF5DF80BAE543ED4
:10572000555555555555D53FFE822B654715F73FC5
:105730009C7500883CE4377E0000004003B8E23FDF
:1057400006D0CF43EBFD4C3E0000F03F0000D03FC1
:105750000000E03F0000F83F2DE9F843604E0546A9
:1057600036EA01020C4600F09E8000290B46844672
:1057700054DD091562D0C3F31303C807A1F2FF3744
:1057800043F4801304D45B0003EBDC734FEA4C0C4E
:1057900000264FEADC7202EB43034FF0160E4FF483
:1057A000001234467F104FEA4C0CA118994202DCDB
:1057B0005B1A8C1816445B00BEF1010E03EBDC7320
:1057C0004FEA52024FEA4C0CEFD1754620204FF0C1
:1057D00000420AE043D04FEADC71013801EB430399
:1057E0004FEA4C0C4FEA520242D0A34202EB0E01A8
:1057F000F0DD002901EB020E0ADBA0461B1B614510
:1058000088BF03F1FF334446ACEB010C1544E2E7DB
:10581000BEF1000FF1DB04F10108EFE721F00042D7
:10582000024336D000294CD14FEADC221346153909
:105830004FEA4C5C002AF7D0D6024CD400205B0023
:10584000DD02044600F10100F9D51A4663460CFA60
:1058500000FCC0F12000C340091B13438BE76145E6
:10586000B9D8002901EB020ED2DB98460023CAE723
:1058700053EA0C0311D16808731003F17F5303F549
:105880000013F20748BF40F0004003EB07590546FC
:105890004C4628462146BDE8F883691C16BF681CA3
:1058A00001364008E8E702460B4600F003FB2A46B3
:1058B000234600F049F905460C4628462146BDE836
:1058C000F883024600F03EF902460B4600F01CFC4D
:1058D00005460C46DDE7634620204FF0FF34BAE76B
:1058E0000000F07F21F00041704700BF41F0004010
:1058F00000F58010C00F704700200149704700BFBD
:105900000000F87FF0B5C1F30A55A5F2FF3CBCF1E9
:10591000130F02460B460C46864683B04FEAD176FB
:1059200065DCBCF1000F30DB424941FA0CF103EABF
:105930000100104361D003EA510352EA030E4FEA1B
:1059400051010DD024EA01014FF48024BCF1130F62
:105950000CBF4FF0004E4FF0000E44FA0CF40C4315
:105960003549234601EBC606D6E900677246304644
:10597000394600F0E9F8CDE90001DDE900013246E1
:105980003B4600F0DFF803B0F0BD21F000410143D9
:105990001946F8D0C3F3130343EA000ECEF1000317
:1059A00043EA0E03620C1B0B03F40023520443EA88
:1059B00002010B462049024601EBC606D6E9006704
:1059C0003046394600F0C0F8CDE90001DDE90001BC
:1059D00032463B4600F0B6F8024604F0004421F09F
:1059E000004141EA04031046194603B0F0BDBCF182
:1059F000330F06DDBCF5806F18D01046194603B092
:105A0000F0BD4FF0FF31A5F21345E9400842F4D054
:105A100010EA51024FEA5103A2D04FF0804E20EA23
:105A200003034EFA05F543EA050E99E700F08CF8FA
:105A3000A9E700BFFFFF0F0040740A080000000044
:105A4000C1F30A5370B58C4604460D4616467BBB1F
:105A5000034621F0004C5CEA030328D0324B0022BD
:105A600000F028FA314B04469E420D461ADB8C4664
:105A7000C1F30A53363B40F2FE723344934220DCBA
:105A8000002B3EDC13F1350F2CDA4CF250339E42E2
:105A900017DC05F0004343F0D27141F4B7312448DC
:105AA00041F01F011CA3D3E9002300F003FA70BDED
:105AB00040F2FF7E7345DED102460B4600F044F80B
:105AC00070BD05F0004343F0FC4141F45F1141F427
:105AD000105113A3D3E90023164841F03C0100F014
